:100000000C9462000C948A000C948A000C948A0070
:100010000C948A000C948A000C948A000C948A0038
:100020000C948A000C948A000C948A000C948A0028
:100030000C948A000C948A000C948A000C948A0018
:100040000C9401020C948A000C9491030C948A0085
:100050000C948A000C948A000C948A000C948A00F8
:100060000C948A000C948A000000000024002700F1
:100070002A0000000000250028002B0000000000DE
:1000800023002600290004040404040404040202DA
:100090000202020203030303030301020408102007
:1000A0004080010204081020010204081020000012
:1000B0000007000201000003040600000000000029
:1000C0000000220511241FBECFEFD8E0DEBFCDBF58
:1000D00011E0A0E0B1E0E6E4FFE002C005900D927F
:1000E000AE30B107D9F711E0AEE0B1E001C01D922A
:1000F000A63BB107E1F710E0C4ECD0E004C02297C2
:10010000FE010E949D07C23CD107C9F70E94FA0177
:100110000C94A1070C9400008FEF90E031C08AE0AE
:100120000E94CB02609112017091130189E00E943C
:10013000CB022091000130910101442737FD409509
:10014000542F60E67AEE80E090E00E946C07CA01CE
:10015000B9010E9429062DEC3CEC4CEC5DE30E94B9
:10016000B50620E030E04FE753E40E9493050E947B
:10017000FB050E94490280911201909113010197A1
:1001800090931301809312016091120170911301F9
:100190006536710524F684E690E031C08AE00E945D
:1001A000CB02609112017091130189E00E94CB0291
:1001B0002091000130910101442737FD4095542FD3
:1001C00060E67AEE80E090E00E946C07CA01B90117
:1001D0000E9429062DEC3CEC4CE45EE30E94B5063F
:1001E00020E030E04FE753E40E9493050E94FB05B6
:1001F0000E944902809112019091130101969093FF
:1002000013018093120160911201709113016F3FED
:10021000710524F28FEF90E031C08AE00E94CB029A
:10022000609112017091130189E00E94CB0220912C
:10023000000130910101442737FD4095542F60E6BD
:100240007AEE80E090E00E946C07CA01B9010E943A
:1002500029062DEC3CEC4CEC5DE30E94B50620E059
:1002600030E04FE753E40E9493050E94FB050E9493
:10027000490280911201909113010197909313010B
:10028000809312016091120170911301653671051E
:1002900024F684E690E031C08AE00E94CB026091AF
:1002A00012017091130189E00E94CB02209100019C
:1002B00030910101442737FD4095542F60E67AEED6
:1002C00080E090E00E946C07CA01B9010E942906F3
:1002D0002AE939E949E15FE30E94B50620E030E010
:1002E0004FE753E40E9493050E94FB050E944902D8
:1002F00080911201909113010196909313018093C4
:10030000120160911201709113016F3F710524F287
:10031000089560910E0170910F016F3F710551F4C6
:1003200080911001909111018F3F910519F40E9465
:100330008C00089589E00E94CB02609110017091B9
:1003400011018AE00E94CB02089583EA91E00E94A5
:10035000C704882361F083EA91E00E94DB04909354
:1003600011018093100183EA91E00E940305089532
:1003700083EA91E060910E010E940F05089580913B
:1003800014010E94AD0220910E0130910F01181648
:10039000190634F42F3F310564F42F5F3F4F05C039
:1003A0001216130634F42150304030930F0120937D
:1003B0000E016AE070E080E090E00E94490208953A
:1003C0000E94BF010E94B8010E94A5010E948901FC
:1003D000089583EA91E040E855E260E070E00E9411
:1003E000CE0389E061E00E9424038AE061E00E947C
:1003F000240308950E9473020E94E9010E94E00113
:10040000FDCF1F920F920FB60F9211242F933F939F
:100410008F939F93AF93BF9380911A0190911B018B
:10042000A0911C01B0911D0130911E010196A11DEA
:10043000B11D232F2D5F2D3720F02D570196A11DC3
:10044000B11D20931E0180931A0190931B01A0936C
:100450001C01B0931D018091160190911701A0918C
:100460001801B09119010196A11DB11D80931601CB
:1004700090931701A0931801B0931901BF91AF9108
:100480009F918F913F912F910F900FBE0F901F90D2
:100490001895EF92FF920F931F937B018C018FB7FA
:1004A000F89440911A0150911B0160911C017091C8
:1004B0001D018FBF2FB7F89480911A0190911B01F5
:1004C000A0911C01B0911D012FBF841B950BA60BA1
:1004D000B70BE816F9060A071B0760F71F910F9183
:1004E000FF90EF900895789484B5826084BD84B5C0
:1004F000816084BD85B5826085BD85B5816085BD1F
:10050000EEE6F0E0808181608083E1E8F0E08081C8
:1005100082608083808181608083E0E8F0E0808178
:1005200081608083E1EBF0E0808184608083E0EB98
:10053000F0E0808181608083EAE7F0E08081846080
:1005400080838081826080838081816080838081DC
:10055000806880831092C10008958F70909102018D
:100560009295990F990F907C982B90937C00809195
:100570007A00806480937A0080917A0086FDFCCFB7
:100580002091780040917900942F80E030E0282B72
:10059000392BC90108951F93CF93DF93182FEB01D7
:1005A00061E00E942403E12FF0E0E255FF4F8491C7
:1005B000833051F480918000806880938000D093D4
:1005C0008900C09388003CC0843051F48091800041
:1005D000806280938000D0938B00C0938A0030C0EB
:1005E000813039F4209729F184B5806884BDC7BD76
:1005F00027C0823039F42097E1F084B5806284BD51
:10060000C8BD1EC0863041F48091B00080688093E0
:10061000B000C093B30014C0873041F48091B000A3
:1006200080628093B000C093B4000AC0C038D10586
:100630001CF4812F60E002C0812F61E00E9444031E
:10064000DF91CF911F910895282F30E0C901865680
:100650009F4FFC0194912A573F4FF90184918823C1
:1006600091F0E82FF0E0EE0FFF1FE859FF4FA59142
:10067000B491662329F48C91909589238C930895E5
:100680008C91892B8C930895482F50E0CA01825594
:100690009F4FFC012491CA0186569F4FFC01949103
:1006A0004A575F4FFA0134913323D1F1222331F1BC
:1006B000233021F4809180008F7705C0243031F4FD
:1006C000809180008F7D8093800018C0213019F4C4
:1006D00084B58F7704C0223021F484B58F7D84BD2A
:1006E0000DC0263021F48091B0008F7705C02730EF
:1006F00029F48091B0008F7D8093B000E32FF0E06B
:10070000EE0FFF1FEE58FF4FA591B491662329F419
:100710008C91909589238C9308958C91892B8C933F
:1007200008951F920F920FB60F9211242F933F93AB
:100730004F935F936F937F938F939F93AF93BF93E9
:10074000EF93FF934091C600E0919F01F091A001CB
:10075000CF01019660E870E00E9437079C0180910C
:10076000A1019091A2012817390739F0E15EFE4FEF
:1007700040833093A00120939F01FF91EF91BF919F
:10078000AF919F918F917F916F915F914F913F9129
:100790002F910F900FBE0F901F9018955F926F9240
:1007A0007F928F929F92AF92BF92CF92DF92EF9201
:1007B000FF920F931F93CF93DF93EC013A014B010C
:1007C000413482E458078FE0680780E078070CF036
:1007D0007FC060E874E88EE190E0A40193010E947C
:1007E0006C072150304040405040CA01B90122E01E
:1007F00030E040E050E00E946C0759016A01A60118
:100800009501209530954095509594E0220F331F27
:10081000441F551F9A95D1F760E074E284EF90E091
:100820000E946C07CA01B9012FEF30E040E050E0B0
:100830000E941807A40193010E946C07C90181500E
:100840009F4F181619061CF4522E5A9403C05524B3
:100850005394521A60E079E08DE390E0A401930193
:100860000E946C072150304040405040CA01B901FD
:1008700022E030E040E050E00E946C072095309587
:100880004095509583E0220F331F441F551F8A95D2
:10089000D1F760E074E284EF90E00E946C07CA0137
:1008A000B9012FEF30E040E050E00E941807A401AA
:1008B00093010E946C07C90181509F4F18161906B9
:1008C0001CF4822F815002C081E0821B851500F547
:1008D000E885F98581E090E00A8802C0880F991FB9
:1008E0000A94E2F7808360E079E08DE390E0A40170
:1008F00093010E946C072150304040405040CA0193
:10090000B90122E030E040E050E00E946C0704C0F2
:10091000E885F98510829501EC81FD813083EE81B7
:10092000FF812083EA85FB85208141E050E0CA01F8
:100930000E8402C0880F991F0A94E2F7282B2083A7
:10094000EA85FB852081CA010F8402C0880F991FA8
:100950000A94E2F7282B2083EA85FB8580810888AA
:1009600002C0440F551F0A94E2F7842B8083DF9165
:10097000CF911F910F91FF90EF90DF90CF90BF909C
:10098000AF909F908F907F906F905F900895DC0163
:100990001296ED91FC911397E058FF4F8191919140
:1009A00080589F4F20813181821B930B60E870E05B
:1009B0000E9437070895CF93DF93DC011296ED91E3
:1009C000FC911397EF01CE57DF4F48815981E058D2
:1009D000FF4F80819181E058F0408417950719F40A
:1009E0002FEF3FEF0CC0E40FF51F2081CA010196E5
:1009F00060E870E00E9437079983888330E0C9017E
:100A0000DF91CF910895DC011296ED91FC9113973F
:100A1000EE57FF4F80819181929382930895FC015C
:100A2000A085B18521898C9190E0022E02C0959518
:100A300087950A94E2F780FFF6CF0484F585E02DD0
:100A40006083089587E091E09093A4018093A301CF
:100A50008FE191E09093A6018093A50185EC90E051
:100A60009093A8018093A70184EC90E09093AA0151
:100A70008093A90180EC90E09093AC018093AB014E
:100A800081EC90E09093AE018093AD0186EC90E014
:100A90009093B0018093AF0184E08093B10183E033
:100AA0008093B20187E08093B30185E08093B40125
:100AB00081E08093B50108950F931F93CF93DF9347
:100AC0008C01EB0109C02196D801ED91FC910190B8
:100AD000F081E02DC801099568816623A1F7DF91B7
:100AE000CF911F910F910895EF92FF920F931F9353
:100AF000CF93DF938C017B01EA010CC0D7016D918C
:100B00007D01D801ED91FC910190F081E02DC801AB
:100B100009952197209791F7DF91CF911F910F9120
:100B2000FF90EF9008950CD0E6C0DED040F0D5D015
:100B300030F021F45F3F19F0C7C0511110C1CAC095
:100B4000EBD098F39923C9F35523B1F3951B550BBB
:100B5000BB27AA2762177307840738F09F5F5F4F90
:100B6000220F331F441FAA1FA9F333D00E2E3AF0D1
:100B7000E0E830D091505040E695001CCAF729D0EB
:100B8000FE2F27D0660F771F881FBB1F261737073A
:100B90004807AB07B0E809F0BB0B802DBF01FF276A
:100BA00093585F4F2AF09E3F510568F08DC0D7C023
:100BB0005F3FECF3983EDCF3869577956795B795A4
:100BC000F7959F5FC9F7880F911D9695879597F9BF
:100BD0000895E1E0660F771F881FBB1F6217730738
:100BE0008407BA0720F0621B730B840BBA0BEE1F4D
:100BF00088F7E095089598D088F09F5790F0B92F26
:100C00009927B751A0F0D1F0660F771F881F991F61
:100C10001AF0BA95C9F712C0B13081F09FD0B1E097
:100C200008959CC0672F782F8827B85F39F0B93FA7
:100C3000CCF3869577956795B395D9F73EF4909563
:100C40008095709561957F4F8F4F9F4F0895E894E1
:100C500009C097FB3EF490958095709561957F4F04
:100C60008F4F9F4F9923A9F0F92F96E9BB279395B2
:100C7000F695879577956795B795F111F8CFFAF4C2
:100C8000BB0F11F460FF1BC06F5F7F4F8F4F9F4FF3
:100C900016C0882311F096E911C0772321F09EE851
:100CA000872F762F05C0662371F096E8862F70E0B7
:100CB00060E02AF09A95660F771F881FDAF7880F91
:100CC0009695879597F9089597F99F6780E870E062
:100CD00060E008959FEF80EC089500240A941616B2
:100CE000170618060906089500240A94121613061A
:100CF000140605060895092E0394000C11F48823A8
:100D000052F0BB0F40F4BF2B11F460FF04C06F5FC3
:100D10007F4F8F4F9F4F089557FD9058440F551F99
:100D200059F05F3F71F04795880F97FB991F61F06D
:100D30009F3F79F087950895121613061406551FE4
:100D4000F2CF4695F1DF08C0161617061806991F50
:100D5000F1CF86957105610508940895E894BB2745
:100D600066277727CB0197F908950BD0C4CFB5DF5D
:100D700028F0BADF18F0952309F0A6CFABCF1124E5
:100D8000EECFCADFA0F3959FD1F3950F50E0551F2A
:100D9000629FF001729FBB27F00DB11D639FAA27D0
:100DA000F00DB11DAA1F649F6627B00DA11D661F1F
:100DB000829F2227B00DA11D621F739FB00DA11D40
:100DC000621F839FA00D611D221F749F3327A00DFA
:100DD000611D231F849F600D211D822F762F6A2F96
:100DE00011249F5750408AF0E1F088234AF0EE0F1B
:100DF000FF1FBB1F661F771F881F91505040A9F728
:100E00009E3F510570F060CFAACF5F3FECF3983E54
:100E1000DCF3869577956795B795F795E7959F5F8E
:100E2000C1F7FE2B880F911D9695879597F9089528
:100E3000629FD001739FF001829FE00DF11D649FBE
:100E4000E00DF11D929FF00D839FF00D749FF00D4A
:100E5000659FF00D9927729FB00DE11DF91F639FEB
:100E6000B00DE11DF91FBD01CF011124089597FBBD
:100E7000092E07260AD077FD04D049D006D00020DD
:100E80001AF4709561957F4F0895F6F790958195C6
:100E90009F4F0895A1E21A2EAA1BBB1BFD010DC096
:100EA000AA1FBB1FEE1FFF1FA217B307E407F5071A
:100EB00020F0A21BB30BE40BF50B661F771F881FF6
:100EC000991F1A9469F760957095809590959B018C
:100ED000AC01BD01CF01089597FB092E05260ED068
:100EE00057FD04D0D7DF0AD0001C38F45095409548
:100EF000309521953F4F4F4F5F4F0895F6F79095EE
:100F00008095709561957F4F8F4F9F4F0895AA1BD5
:100F1000BB1B51E107C0AA1FBB1FA617B70710F0E4
:100F2000A61BB70B881F991F5A95A9F78095909516
:100F3000BC01CD010895EE0FFF1F0590F491E02D47
:060F40000994F894FFCFB4
:0E0F4600140001000000000F055C057405009A
:00000001FF
