:100000000C9462000C948A000C948A000C948A0070
:100010000C948A000C948A000C948A000C948A0038
:100020000C948A000C948A000C948A000C948A0028
:100030000C948A000C948A000C948A000C948A0018
:100040000C9485020C948A000C9415040C948A007C
:100050000C948A000C948A000C948A000C948A00F8
:100060000C948A000C948A000000000024002700F1
:100070002A0000000000250028002B0000000000DE
:1000800023002600290004040404040404040202DA
:100090000202020203030303030301020408102007
:1000A0004080010204081020010204081020000012
:1000B0000007000201000003040600000000000029
:1000C00000005E0511241FBECFEFD8E0DEBFCDBF1C
:1000D00011E0A0E0B1E0ECE1F2E102C005900D9288
:1000E000AC31B107D9F711E0ACE1B1E001C01D922C
:1000F000A43CB107E1F710E0C4ECD0E004C02297C3
:10010000FE010E940809C23CD107C9F70E947E0285
:100110000C940C090C940000609122017091230151
:10012000809102010E944F03609120017091210192
:10013000809106010E944F0308958091040160E0C0
:1001400070E00E944F038091080160E070E00E941F
:100150004F0384E690E033C0809102010E944F0378
:1001600060911C0170911D01809106010E944F0356
:100170002091000130910101442737FD4095542F13
:1001800060E67AEE80E090E00E94D708CA01B901EB
:100190000E9494072DEC3CEC4CEC5DE30E9420089F
:1001A00020E030E04FE753E40E94FE060E9466071D
:1001B0000E94CD0280911C0190911D0101969093A7
:1001C0001D0180931C0160911C0170911D016F3F06
:1001D000710514F28FEF90E033C0809102010E940C
:1001E0004F0360911C0170911D01809106010E94D6
:1001F0004F032091000130910101442737FD4095C4
:10020000542F60E67AEE80E090E00E94D708CA01A1
:10021000B9010E9494072DEC3CEC4CE45EE30E9493
:10022000200820E030E04FE753E40E94FE060E94E1
:1002300066070E94CD0280911C0190911D010197DB
:1002400090931D0180931C0160911C0170911D0110
:100250006536710514F684E690E033C080910201A2
:100260000E944F0360911C0170911D018091060155
:100270000E944F032091000130910101442737FD76
:100280004095542F60E67AEE80E090E00E94D70817
:10029000CA01B9010E9494072DEC3CEC4CEC5DE3E3
:1002A0000E94200820E030E04FE753E40E94FE0661
:1002B0000E9466070E94CD0280911C0190911D0151
:1002C000019690931D0180931C0160911C01709117
:1002D0001D016F3F710514F28FEF90E033C08091E4
:1002E00002010E944F0360911C0170911D018091D9
:1002F00006010E944F032091000130910101442723
:1003000037FD4095542F60E67AEE80E090E00E9441
:10031000D708CA01B9010E9494072AE939E949E1DD
:100320005FE30E94200820E030E04FE753E40E94A2
:10033000FE060E9466070E94CD0280911C019091EA
:100340001D01019790931D0180931C0160911C0178
:1003500070911D016536710514F608958091200194
:10036000909121018F3F910551F48091220190914C
:1003700023018F3F910519F40E949D0008950E946A
:100380008C000895AF92BF92CF92DF92EF92FF92CE
:100390000F931F9380910A010E94310390931F01D4
:1003A00080931E0180910C010E94310390932101E2
:1003B0008093200180910E010E94310390932301CC
:1003C0008093220100D000D060911E0170911F0126
:1003D000882777FD8095982F2FEF30E040E050E0A0
:1003E000EDB7FEB7218332834383548320E030E0AE
:1003F00040E050E0EFEFEE2EE3E0FE2E012D112D58
:10040000AA24BB2465010E94B50670931F01609366
:100410001E012091200130912101442737FD409594
:10042000542F882777FD8095982FEDB7FEB761830D
:10043000728383839483CA01B90120E030E040E0F5
:1004400050E00E94B50670932101609320016091F5
:10045000220170912301882777FD8095982F2091A4
:100460001E0130911F01442737FD4095542FEDB7F1
:10047000FEB7218332834383548320E030E040E0A1
:1004800050E00E94B50670932301609322010F9003
:100490000F900F900F9060911E0170911F0181EBE2
:1004A00091E00E94A5061F910F91FF90EF90DF90C1
:1004B000CF90BF90AF9008950E94C2010E94AE01FC
:1004C000089581EB91E040E855E260E070E00E9421
:1004D00052048091020161E00E94A803809104010E
:1004E00061E00E94A8038091060161E00E94A803D8
:1004F0008091080161E00E94A80308950E94F7021C
:100500000E9461020E945C02FDCF1F920F920FB603
:100510000F9211242F933F938F939F93AF93BF9389
:100520008091280190912901A0912A01B0912B017D
:1005300030912C010196A11DB11D232F2D5F2D3768
:1005400020F02D570196A11DB11D20932C01809301
:10055000280190932901A0932A01B0932B01809147
:10056000240190912501A0912601B09127010196C7
:10057000A11DB11D8093240190932501A093260114
:10058000B0932701BF91AF919F918F913F912F9190
:100590000F900FBE0F901F901895EF92FF920F9340
:1005A0001F937B018C018FB7F894409128015091E3
:1005B000290160912A0170912B018FBF2FB7F89408
:1005C0008091280190912901A0912A01B0912B01DD
:1005D0002FBF841B950BA60BB70BE816F9060A076D
:1005E0001B0760F71F910F91FF90EF90089578948B
:1005F00084B5826084BD84B5816084BD85B5826028
:1006000085BD85B5816085BDEEE6F0E080818160C5
:100610008083E1E8F0E08081826080838081816076
:100620008083E0E8F0E0808181608083E1EBF0E0AE
:10063000808184608083E0EBF0E080818160808352
:10064000EAE7F0E08081846080838081826080833B
:100650008081816080838081806880831092C10066
:1006600008958F70909110019295990F990F907C39
:10067000982B90937C0080917A00806480937A001C
:1006800080917A0086FDFCCF20917800409179001E
:10069000942F80E030E0282B392BC90108951F9357
:1006A000CF93DF93182FEB0161E00E94A803E12FA5
:1006B000F0E0E255FF4F8491833051F48091800047
:1006C000806880938000D0938900C09388003CC0EC
:1006D000843051F480918000806280938000D093B8
:1006E0008B00C0938A0030C0813039F4209729F103
:1006F00084B5806884BDC7BD27C0823039F4209797
:10070000E1F084B5806284BDC8BD1EC0863041F46E
:100710008091B00080688093B000C093B30014C093
:10072000873041F48091B00080628093B000C09324
:10073000B4000AC0C038D1051CF4812F60E002C0AB
:10074000812F61E00E94C803DF91CF911F9108952E
:10075000282F30E0C90186569F4FFC0194912A57FB
:100760003F4FF9018491882391F0E82FF0E0EE0FDC
:10077000FF1FE859FF4FA591B491662329F48C918E
:10078000909589238C9308958C91892B8C9308954F
:10079000482F50E0CA0182559F4FFC012491CA01A5
:1007A00086569F4FFC0194914A575F4FFA0134914E
:1007B0003323D1F1222331F1233021F480918000C1
:1007C0008F7705C0243031F4809180008F7D809335
:1007D000800018C0213019F484B58F7704C022300E
:1007E00021F484B58F7D84BD0DC0263021F4809125
:1007F000B0008F7705C0273029F48091B0008F7D3D
:100800008093B000E32FF0E0EE0FFF1FEE58FF4F94
:10081000A591B491662329F48C91909589238C93AA
:1008200008958C91892B8C9308951F920F920FB687
:100830000F9211242F933F934F935F936F937F9366
:100840008F939F93AF93BF93EF93FF934091C60015
:10085000E091AD01F091AE01CF01019660E870E04A
:100860000E94A2089C018091AF019091B0012817CD
:10087000390739F0E35DFE4F40833093AE0120939A
:10088000AD01FF91EF91BF91AF919F918F917F91BA
:100890006F915F914F913F912F910F900FBE0F90ED
:1008A0001F9018955F926F927F928F929F92AF9256
:1008B000BF92CF92DF92EF92FF920F931F93CF934D
:1008C000DF93EC013A014B01413482E458078FE099
:1008D000680780E078070CF07FC060E874E88EE17C
:1008E00090E0A40193010E94D7082150304040407D
:1008F0005040CA01B90122E030E040E050E00E94DF
:10090000D70859016A01A6019501209530954095B7
:10091000509594E0220F331F441F551F9A95D1F72D
:1009200060E074E284EF90E00E94D708CA01B90148
:100930002FEF30E040E050E00E948308A4019301D3
:100940000E94D708C90181509F4F181619061CF440
:10095000522E5A9403C055245394521A60E079E001
:100960008DE390E0A40193010E94D708215030400C
:1009700040405040CA01B90122E030E040E050E080
:100980000E94D708209530954095509583E0220F1E
:10099000331F441F551F8A95D1F760E074E284EF3E
:1009A00090E00E94D708CA01B9012FEF30E040E083
:1009B00050E00E948308A40193010E94D708C90156
:1009C00081509F4F181619061CF4822F815002C0C7
:1009D00081E0821B851500F5E885F98581E090E0CE
:1009E0000A8802C0880F991F0A94E2F7808360E0AA
:1009F00079E08DE390E0A40193010E94D708215093
:100A0000304040405040CA01B90122E030E040E0AF
:100A100050E00E94D70804C0E885F985108295014E
:100A2000EC81FD813083EE81FF812083EA85FB85A7
:100A3000208141E050E0CA010E8402C0880F991F56
:100A40000A94E2F7282B2083EA85FB852081CA01DE
:100A50000F8402C0880F991F0A94E2F7282B208385
:100A6000EA85FB858081088802C0440F551F0A94DF
:100A7000E2F7842B8083DF91CF911F910F91FF903C
:100A8000EF90DF90CF90BF90AF909F908F907F902E
:100A90006F905F900895FC01A085B18521898C91AC
:100AA00090E0022E02C0959587950A94E2F780FFA8
:100AB000F6CF0484F585E02D6083089585E191E00B
:100AC0009093B2018093B1018DE291E09093B401D3
:100AD0008093B30185EC90E09093B6018093B501CB
:100AE00084EC90E09093B8018093B70180EC90E0A3
:100AF0009093BA018093B90181EC90E09093BC018E
:100B00008093BB0186EC90E09093BE018093BD0181
:100B100084E08093BF0183E08093C00187E08093ED
:100B2000C10185E08093C20181E08093C3010895F3
:100B30000F931F93CF93DF938C01EB0109C0219694
:100B4000D801ED91FC910190F081E02DC80109954B
:100B500068816623A1F7DF91CF911F910F910895CE
:100B6000EF92FF920F931F93CF93DF938C017B0142
:100B7000EA010CC0D7016D917D01D801ED91FC9186
:100B80000190F081E02DC80109952197209791F7F8
:100B9000DF91CF911F910F91FF90EF9008950F93E8
:100BA0001F938C01DC01ED91FC910190F081E02D0F
:100BB0006DE00995D801ED91FC910190F081E02D57
:100BC000C8016AE009951F910F9108952F923F92F5
:100BD0004F925F926F927F928F929F92AF92BF924D
:100BE000CF92DF92EF92FF920F931F93DF93CF93F9
:100BF000CDB7DEB7A0970FB6F894DEBF0FBECDBF5E
:100C00001C016A017B01411551056105710549F41B
:100C1000DC01ED91FC910190F081E02D60E30995FC
:100C200054C0882499245401422E552466247724E4
:100C300001E010E00C0F1D1F080D191DC701B601C2
:100C4000A30192010E94B508F80160830894811CF9
:100C5000911CA11CB11CC701B601A30192010E9405
:100C6000B508C901DA016C017D01C114D104E104A8
:100C7000F104F1F681E0E82EF12CEC0EFD1EE80CFB
:100C8000F91C3E010894611C711CD501C401019737
:100C9000A109B1096C01C818D90814C0F601EE0DFC
:100CA000FF1D60816A3010F4605D01C0695CD10194
:100CB000ED91FC910190F081E02DC101099508941E
:100CC000E108F1086E147F0449F7A0960FB6F89476
:100CD000DEBF0FBECDBFCF91DF911F910F91FF906F
:100CE000EF90DF90CF90BF90AF909F908F907F90CC
:100CF0006F905F904F903F902F900895EF92FF92EA
:100D00000F931F93CF93DF93EC017A018B0177FF51
:100D10000FC0E881F9810190F081E02D6DE2099525
:100D200010950095F094E094E11CF11C011D111D3B
:100D3000CE01B801A7012AE00E94E605DF91CF911C
:100D40001F910F91FF90EF9008950F931F938C01C7
:100D5000AB01662757FD6095762F0E947E06C8017D
:100D60000E94CF051F910F9108952F923F924F92AD
:100D70005F926F927F928F929F92AF92BF92CF922B
:100D8000DF92EF92FF920F931F93DF93CF93CDB734
:100D9000DEB73B014C0119012A016D897E898F89DB
:100DA000988D6A197B098C099D09621A730A840A55
:100DB000950AA40193010E948308E218F30804092C
:100DC0001509A80197010E94D7082A0D3B1D4C1D4B
:100DD0005D1DB901CA01CF91DF911F910F91FF9065
:100DE000EF90DF90CF90BF90AF909F908F907F90CB
:100DF0006F905F904F903F902F9008950CD0E6C079
:100E0000DED040F0D5D030F021F45F3F19F0C7C0FC
:100E1000511110C1CAC0EBD098F39923C9F35523DF
:100E2000B1F3951B550BBB27AA27621773078407DD
:100E300038F09F5F5F4F220F331F441FAA1FA9F393
:100E400033D00E2E3AF0E0E830D091505040E69585
:100E5000001CCAF729D0FE2F27D0660F771F881FE6
:100E6000BB1F261737074807AB07B0E809F0BB0BD5
:100E7000802DBF01FF2793585F4F2AF09E3F5105F9
:100E800068F08DC0D7C05F3FECF3983EDCF38695E9
:100E900077956795B795F7959F5FC9F7880F911D6F
:100EA0009695879597F90895E1E0660F771F881F5B
:100EB000BB1F621773078407BA0720F0621B730B0E
:100EC000840BBA0BEE1F88F7E095089598D088F050
:100ED0009F5790F0B92F9927B751A0F0D1F0660F26
:100EE000771F881F991F1AF0BA95C9F712C0B13041
:100EF00081F09FD0B1E008959CC0672F782F88279C
:100F0000B85F39F0B93FCCF3869577956795B3957F
:100F1000D9F73EF490958095709561957F4F8F4FEE
:100F20009F4F0895E89409C097FB3EF490958095F3
:100F3000709561957F4F8F4F9F4F9923A9F0F92F9F
:100F400096E9BB279395F695879577956795B7951D
:100F5000F111F8CFFAF4BB0F11F460FF1BC06F5F03
:100F60007F4F8F4F9F4F16C0882311F096E911C015
:100F7000772321F09EE8872F762F05C0662371F036
:100F800096E8862F70E060E02AF09A95660F771F4A
:100F9000881FDAF7880F9695879597F9089597F93E
:100FA0009F6780E870E060E008959FEF80EC08950F
:100FB00000240A9416161706180609060895002438
:100FC0000A9412161306140605060895092E0394B2
:100FD000000C11F4882352F0BB0F40F4BF2B11F426
:100FE00060FF04C06F5F7F4F8F4F9F4F089557FD85
:100FF0009058440F551F59F05F3F71F04795880F87
:1010000097FB991F61F09F3F79F08795089512161D
:1010100013061406551FF2CF4695F1DF08C01616C9
:1010200017061806991FF1CF86957105610508947A
:101030000895E894BB2766277727CB0197F9089591
:101040000BD0C4CFB5DF28F0BADF18F0952309F034
:10105000A6CFABCF1124EECFCADFA0F3959FD1F37B
:10106000950F50E0551F629FF001729FBB27F00D56
:10107000B11D639FAA27F00DB11DAA1F649F6627AB
:10108000B00DA11D661F829F2227B00DA11D621FFA
:10109000739FB00DA11D621F839FA00D611D221FB4
:1010A000749F3327A00D611D231F849F600D211D98
:1010B000822F762F6A2F11249F5750408AF0E1F03B
:1010C00088234AF0EE0FFF1FBB1F661F771F881F84
:1010D00091505040A9F79E3F510570F060CFAACFC4
:1010E0005F3FECF3983EDCF3869577956795B7956F
:1010F000F795E7959F5FC1F7FE2B880F911D969599
:10110000879597F90895629FD001739FF001829FA0
:10111000E00DF11D649FE00DF11D929FF00D839F86
:10112000F00D749FF00D659FF00D9927729FB00D23
:10113000E11DF91F639FB00DE11DF91FBD01CF0136
:101140001124089597FB092E07260AD077FD04D0B5
:1011500049D006D000201AF4709561957F4F08950C
:10116000F6F7909581959F4F0895A1E21A2EAA1B3C
:10117000BB1BFD010DC0AA1FBB1FEE1FFF1FA21747
:10118000B307E407F50720F0A21BB30BE40BF50B44
:10119000661F771F881F991F1A9469F760957095CD
:1011A000809590959B01AC01BD01CF01089597FBFF
:1011B000092E05260ED057FD04D0D7DF0AD0001C1B
:1011C00038F450954095309521953F4F4F4F5F4FE4
:1011D0000895F6F790958095709561957F4F8F4FA4
:1011E0009F4F0895AA1BBB1B51E107C0AA1FBB1F3D
:1011F000A617B70710F0A61BB70B881F991F5A95A3
:10120000A9F780959095BC01CD010895EE0FFF1FC1
:0C1210000590F491E02D0994F894FFCFB4
:10121C0014000A000B00060009000300040005007E
:0C122C0001000000004B059805B0050013
:00000001FF
